:020000040800F2
:1000000000500020411B00087519000879190008EC
:100010007D190008811900088519000800000000FA
:100020000000000000000000000000008919000826
:100030008D190008000000009119000895190008AA
:10004000891B0008891B0008891B0008891B000800
:10005000891B0008891B0008891B0008891B0008F0
:10006000891B0008891B0008891B0008891B0008E0
:10007000A1190008891B0008891B0008891B0008BA
:10008000B1190008891B0008891B0008891B00089A
:10009000891B0008891B0008891B0008891B0008B0
:1000A000891B0008891B0008891B0008891B0008A0
:1000B000891B0008891B0008891B0008891B000890
:1000C000891B0008891B0008891B0008891B000880
:1000D000891B0008891B0008891B0008891B000870
:1000E000891B0008891B0008891B0008000000000C
:1000F0000000000000000000000000000000000000
:0C01000000000000000000005FF808F1A3
:10010C0010B5054C237833B9044B13B10448AFF345
:10011C0000800123237010BD0C00002000000000A3
:10012C00D81B0008084B10B51BB108490848AFF3A1
:10013C0000800848036803B910BD074B002BFBD0A7
:10014C00BDE81040184700BF000000001000002060
:10015C00D81B00080C0000200000000080F00040BC
:10016C0002E000BF81F0004142001FBF5FEA410383
:10017C0092EA030F7FEA226C7FEA236C6AD04FEA83
:10018C001262D2EB1363C1BFD218414048404140C8
:10019C00B8BF5B42192B88BF704710F0004F40F47A
:1001AC00000020F07F4018BF404211F0004F41F496
:1001BC00000121F07F4118BF494292EA030F3FD062
:1001CC00A2F1010241FA03FC10EB0C00C3F1200375
:1001DC0001FA03F100F0004302D5494260EB400004
:1001EC00B0F5000F13D3B0F1807F06D340084FEA6F
:1001FC00310102F10102FE2A51D2B1F1004F40EB64
:10020C00C25008BF20F0010040EA030070474900CB
:10021C0040EB000010F4000FA2F10102EDD1B0FA96
:10022C0080FCACF1080CB2EB0C0200FA0CF0AABF8B
:10023C0000EBC25052421843BCBFD0401843704729
:10024C0092F0000F81F4000106BF80F4000001322F
:10025C00013BB5E74FEA41037FEA226C18BF7FEA06
:10026C00236C21D092EA030F04D092F0000F08BF48
:10027C000846704790EA010F1CBF0020704712F02F
:10028C007F4F04D1400028BF40F00040704712F16E
:10029C0000723CBF00F50000704700F0004343F0D3
:1002AC00FE4040F4000070477FEA226216BF084609
:1002BC007FEA23630146420206BF5FEA412390EACC
:1002CC00010F40F4800070474FF0000304E000BFC2
:1002DC0010F0004348BF40425FEA000C08BF704773
:1002EC0043F0964301464FF000001CE050EA010237
:1002FC0008BF70474FF000030AE000BF50EA01024C
:10030C0008BF704711F0004302D5404261EB410138
:10031C005FEA010C02BF84460146002043F0B6435D
:10032C0008BFA3F18053A3F50003BCFA8CF2083A82
:10033C00A3EBC25310DB01FA02FC634400FA02FC8B
:10034C00C2F12002BCF1004F20FA02F243EB020092
:10035C0008BF20F00100704702F1200201FA02FCF4
:10036C00C2F1200250EA4C0021FA02F243EB0200E7
:10037C0008BF20EADC7070474FF0FF0C1CEAD0522B
:10038C001EBF1CEAD15392EA0C0F93EA0C0F6FD0EC
:10039C001A4480EA010C400218BF5FEA41211ED0CA
:1003AC004FF0006343EA501043EA5111A0FB0131B6
:1003BC000CF00040B1F5000F3EBF490041EAD3718B
:1003CC005B0040EA010062F17F02FD2A1DD8B3F107
:1003DC00004F40EBC25008BF20F00100704790F076
:1003EC00000F0CF0004C08BF49024CEA502040EAC8
:1003FC0051207F3AC2BFD2F1FF0340EAC25070478E
:10040C0040F400004FF00003013A5DDC12F1190FCB
:10041C00DCBF00F000407047C2F10002410021FA3D
:10042C0002F1C2F1200200FA02FC5FEA310040F155
:10043C00000053EA4C0308BF20EADC70704792F0CE
:10044C00000F00F0004C02BF400010F4000F013A06
:10045C00F9D040EA0C0093F0000F01F0004C02BF01
:10046C00490011F4000F013BF9D041EA0C018FE770
:10047C000CEAD15392EA0C0F18BF93EA0C0F0AD076
:10048C0030F0004C18BF31F0004CD8D180EA01009C
:10049C0000F00040704790F0000F17BF90F0004F35
:1004AC00084691F0000F91F0004F14D092EA0C0F17
:1004BC0001D142020FD193EA0C0F03D14B0218BFAA
:1004CC00084608D180EA010000F0004040F0FE40F0
:1004DC0040F40000704740F0FE4040F4400070478C
:1004EC004FF0FF0C1CEAD0521EBF1CEAD15392EA0B
:1004FC000C0F93EA0C0F69D0A2EB030280EA010CFB
:10050C0049024FEA402037D04FF0805343EA111193
:10051C0043EA10130CF000408B4238BF5B0042F1F1
:10052C007D024FF4000C8B4224BF5B1A40EA0C0096
:10053C00B3EB510F24BFA3EB510340EA5C00B3EBC8
:10054C00910F24BFA3EB910340EA9C00B3EBD10FB6
:10055C0024BFA3EBD10340EADC001B0118BF5FEA08
:10056C001C1CE0D1FD2A3FF650AF8B4240EBC25031
:10057C0008BF20F0010070470CF0004C4CEA5020F2
:10058C007F32C2BFD2F1FF0340EAC250704740F441
:10059C0000004FF00003013A37E792F0000F00F033
:1005AC00004C02BF400010F4000F013AF9D040EAB1
:1005BC000C0093F0000F01F0004C02BF490011F445
:1005CC00000F013BF9D041EA0C0195E70CEAD1533D
:1005DC0092EA0C0F08D142027FF47DAF93EA0C0F24
:1005EC007FF470AF084676E793EA0C0F04D14B0208
:1005FC003FF44CAF08466EE730F0004C18BF31F0BA
:10060C00004CCAD130F000427FF45CAF31F00043B3
:10061C007FF43CAF5FE700BF4FEA4002B2F1FE4F00
:10062C000FD34FF09E03B3EB12620DD94FEA0023A8
:10063C0043F0004310F0004F23FA02F018BF404281
:10064C0070474FF00000704712F1610F01D1420268
:10065C0005D110F0004008BF6FF0004070474FF01C
:10066C000000704710B504460E4B18784FF47A739F
:10067C00B3FBF0F30C4A1068B0FBF3F000F08AF80F
:10068C0058B90F2C0BD8002221464FF0FF3000F048
:10069C0043F8044B5C60002010BD012010BD01200C
:1006AC0010BD00BF000000200800002008B5074A5C
:1006BC00136843F010031360032000F01BF80020B4
:1006CC00FFF7D0FF01F080F8002008BD00200240A9
:1006DC00034A1368034909780B441360704700BF41
:1006EC002800002000000020014B1868704700BF54
:1006FC0028000020074AD36823F4E0631B041B0C7A
:10070C00000200F4E060184340F0BF6040F4003099
:10071C00D060704700ED00E030B4164BDB68C3F3DB
:10072C000223C3F10704042C28BF04241D1D062D2D
:10073C0001D9DD1E00E00025012303FA04F4013C7D
:10074C002140A940AB40013B1A400A43002806DA7D
:10075C0000F00F001201D2B2074B1A5407E012013D
:10076C00D2B200F1604000F5614080F8002330BC4B
:10077C00704700BF00ED00E014ED00E0420900F00E
:10078C001F00012303FA00F0014B43F822007047CD
:10079C0000E100E00138B0F1807F0AD2064B5860CE
:1007AC00F021064A82F823100020986007221A6074
:1007BC0070470120704700BF10E000E000ED00E042
:1007CC00042805D1054A136843F0040313607047ED
:1007DC00024A136823F004031360704710E000E032
:1007EC00704700BF08B5FFF7FBFF08BD00282FD0EE
:1007FC0010B403460068184A02441849A1FB0212BF
:10080C00120992001A64164ADA63022283F8212034
:10081C00026822F47F5121F030015C689A6814431D
:10082C00DA6814431A6914435A6914439A691443D5
:10083C00DA6922430A43026000209862D862186386
:10084C0058639863012283F8212083F8200001E08B
:10085C000120704710BC7047F8FFFDBFCDCCCCCC4D
:10086C000000024038B5C36B1A6804682568016C37
:10087C0004238B401A4236D015F0040F33D0236872
:10088C0013F0200F03D1236823F0040323600368C3
:10089C00434A934211D01432934210D014329342F3
:1008AC000FD0143293420FD0143293420FD0143223
:1008BC0093420FD14FF480020EE004220CE0402250
:1008CC000AE04FF4806207E04FF4804204E04FF4FA
:1008DC00802201E04FF08062324B5A60C36A002BD9
:1008EC005CD0984738BD02238B401A423BD015F0A0
:1008FC00020F38D0236813F0200F06D1236823F0A1
:10090C000A032360012380F821300368244A9342B0
:10091C0011D01432934210D0143293420FD01432AF
:10092C0093420FD0143293420FD0143293420FD112
:10093C004FF400120EE002220CE020220AE04FF4E9
:10094C00007207E04FF4005204E04FF4003201E073
:10095C004FF00072134B5A60002380F82030836AEA
:10096C00E3B1984738BD082303FA01F10A4215D0C8
:10097C0015F0080F12D0236823F00E032360C16B0F
:10098C00026C012303FA02F24A60836380F821307F
:10099C00002380F82030036B03B1984738BD00BFAB
:1009AC000800024000000240F0B583B00026344637
:1009BC00D5E00122A2400B6813409A4240F0CE8051
:1009CC004D68122D2DD00BD8022D27D003D85DB336
:1009DC00012D1ED035E0032D30D0112D1BD030E071
:1009EC00614FBD4220D008D8A7F58017BD421BD05F
:1009FC0007F58037BD4224D116E05C4FBD4213D0C1
:100A0C0007F58037BD420FD0A7F58017BD4218D12E
:100A1C000AE0CE6815E0CE68043612E0CE680836DF
:100A2C000FE0CE680C360CE08D684DB1012D02D173
:100A3C000261082605E04261082602E0002600E07B
:100A4C000426FF2B01D8864601E000F1040EFF2B93
:100A5C0001D8A20002E0A4F108029200DEF80070B6
:100A6C000F25954027EA050506FA02F22A43CEF82F
:100A7C0000204A6812F0805F70D03D4A956945F0BD
:100A8C0001059561926902F001020192019AA70891
:100A9C00BD1C384A52F8255004F0030292004FF066
:100AAC000F0E0EFA02FE25EA0E0E334DA8420DD0A3
:100ABC0005F58065A8420BD005F58065A84209D0E4
:100ACC0005F58065A84207D1032506E0002504E062
:100ADC00012502E0022500E0042505FA02F24EEAA7
:100AEC0002020237234D45F827204A6812F4803F52
:100AFC0005D005F580652A681A432A6004E01F4D6D
:100B0C002A6822EA03022A604A6812F4003F04D0E1
:100B1C001A4D6A681A436A6004E0184D6A6822EA42
:100B2C0003026A604A6812F4801F04D0134DAA684D
:100B3C001A43AA6004E0114DAA6822EA0302AA60D3
:100B4C004A6812F4001F04D00C4DEA681343EB60A2
:100B5C0004E00A4DEA6822EA0303EB6001340F2C2F
:100B6C007FF627AF03B0F0BD00002110000031105C
:100B7C000010024000000140000801400004014048
:100B8C0082B0084B1B68084AA2FB03235B0A00FBDC
:100B9C0003F0019000BF019B5A1E0192002BF9D16A
:100BAC0002B0704708000020D34D621070B582B0BF
:100BBC000446036813F0010F6BD0A84B5B6803F07D
:100BCC000C03042B0AD0A54B5B6803F00C03082B19
:100BDC000DD1A24B5B6813F4803F08D09F4B1B6870
:100BEC0013F4003F55D06368002B52D1B8E1636811
:100BFC00B3F5803F05D1994A136843F480331360F1
:100C0C0026E063B903F1804303F504331A6822F438
:100C1C0080321A601A6822F480221A6018E0B3F548
:100C2C00A02F0CD103F18043A3F53C331A6842F496
:100C3C0080221A601A6842F480321A6008E0874BEE
:100C4C001A6822F480321A601A6822F480221A6020
:100C5C0063687BB1FFF748FD054605E0FFF744FDEF
:100C6C00401B642800F27E817C4B1B6813F4003F10
:100C7C00F4D00EE0FFF738FD054605E0FFF734FD34
:100C8C00401B642800F27081744B1B6813F4003F06
:100C9C00F4D1236813F0020F50D0704B5B6813F043
:100CAC000C0F0AD06D4B5B6803F00C03082B16D1AC
:100CBC006A4B5B6813F4803F11D1684B1B6813F0CF
:100CCC00020F03D02369012B40F05081634A136853
:100CDC0023F0F803616943EAC10313602EE0236932
:100CEC00D3B101225E4B1A60FFF7FEFC054605E00E
:100CFC00FFF7FAFC401B022800F23A81574B1B68A5
:100D0C0013F0020FF4D0554A136823F0F80361690D
:100D1C0043EAC103136011E00022514B1A60FFF744
:100D2C00E3FC054605E0FFF7DFFC401B022800F260
:100D3C0021814A4B1B6813F0020FF4D1236813F086
:100D4C00080F29D0A369ABB10122464B1A60FFF7FB
:100D5C00CBFC054605E0FFF7C7FC401B022800F260
:100D6C000B813E4B5B6A13F0020FF4D00120FFF7AE
:100D7C0007FF11E000223B4B1A60FFF7B5FC05465C
:100D8C0005E0FFF7B1FC401B022800F2F780334B63
:100D9C005B6A13F0020FF4D1236813F0040F00F018
:100DAC0089802E4BDB6913F0805F0BD12B4BDA69FA
:100DBC0042F08052DA61DB6903F080530193019BAE
:100DCC00012500E00025284B1B6813F4807F13D10C
:100DDC00254A136843F480731360FFF785FC0646BD
:100DEC0005E0FFF781FC801B642800F2C9801E4BD4
:100DFC001B6813F4807FF4D0E368012B05D1174AEC
:100E0C00136A43F00103136222E063B903F18043D8
:100E1C0003F504331A6A22F001021A621A6A22F0EC
:100E2C0004021A6214E0052B09D10C4B1A6A42F029
:100E3C0004021A621A6A42F001021A6208E0074BB5
:100E4C001A6A22F001021A621A6A22F004021A6269
:100E5C00E368CBB1FFF748FC06460FE000100240F8
:100E6C00000042428004424200700040FFF73CFC0C
:100E7C00801B41F28833984200F28480494B1B6AF4
:100E8C0013F0020FF2D00FE0FFF72EFC064606E03F
:100E9C00FFF72AFC801B41F28833984274D8414BEF
:100EAC001B6A13F0020FF3D125B13E4AD36923F02C
:100EBC008053D361E369002B68D03A4A526802F040
:100ECC000C02082A64D0022B37D10022364B1A6050
:100EDC00FFF70AFC054604E0FFF706FC401B02285E
:100EEC0058D8304B1B6813F0007FF5D1236AB3F54B
:100EFC00803F06D12B494B6823F40032A36813437F
:100F0C004B602848436823F47411236A626A1343C4
:100F1C000B4343600122244B1A60FFF7E5FB0446A8
:100F2C0004E0FFF7E1FB001B022835D81D4B1B68C2
:100F3C0013F0007FF5D0002031E000221A4B1A602C
:100F4C00FFF7D2FB044604E0FFF7CEFB001B0228A0
:100F5C0024D8144B1B6813F0007FF5D100201EE041
:100F6C0001201CE003201AE0032018E0012016E009
:100F7C00032014E0032012E0032010E003200EE015
:100F8C0003200CE003200AE0032008E0002006E028
:100F9C00012004E0032002E0032000E0032002B063
:100FAC0070BD00BF001002406000424230B486B0F9
:100FBC00164D02AC28686968AA68EB680FC42B8AC6
:100FCC00ADF80430124B5B6803F00C02082A19D1FF
:100FDC00C3F3834206A90A4412F8100C13F4803FA1
:100FEC000CD00B4B5B68C3F340430B4413F8142C2D
:100FFC00084B03FB00F0B0FBF2F004E0064B03FBE4
:10100C0000F000E0034806B030BC7047F01B00084D
:10101C000010024000127A0000093D0070B55C4BD4
:10102C001B6803F007038B420BD2594A136823F059
:10103C0007030B431360136803F00703994240F056
:10104C009780036813F0020F06D0524C636823F0AC
:10105C00F0028368134363600D460446036813F083
:10106C00010F4DD04268012A05D14A4B1B6813F47D
:10107C00003F0DD17EE0022A05D1464B1B6813F0D0
:10108C00007F05D178E0434B1B6813F0020F75D03D
:10109C0040494B6823F0030313434B60FFF724FBD9
:1010AC0006466368012B0ED106E0FFF71DFB801B83
:1010BC0041F28833984263D8364B5B6803F00C03DB
:1010CC00042BF2D11CE0022B15D106E0FFF70CFB30
:1010DC00801B41F28833984254D82E4B5B6803F046
:1010EC000C03082BF2D10BE0FFF7FEFA801B41F248
:1010FC008833984248D8274B5B6813F00C0FF3D118
:10110C00234B1B6803F007039D420AD2204A136845
:10111C0023F007032B431360136803F007039D426E
:10112C0034D1236813F0040F06D01A494B6823F40A
:10113C00E062E36813434B60236813F0080F07D099
:10114C00144A536823F46053216943EAC103536082
:10115C00FFF72CFF0F4B5B68C3F303130E4AD35CF2
:10116C00D8400E4B18600020FFF77CFA002070BDB1
:10117C00012070BD012070BD012070BD012070BD2B
:10118C00032070BD032070BD032070BD012070BD15
:10119C0000200240001002400C1C00080800002037
:1011AC00014B1868704700BF0800002008B5FFF716
:1011BC00F7FF044B5B68C3F3C223034AD35CD840EC
:1011CC0008BD00BF001002401C1C000870B4036A6C
:1011DC0023F001030362036A4668826922F07302FA
:1011EC000C6842EA040523F002028B6813430C4C92
:1011FC00A04205D123F00803CA68134323F004036B
:10120C00074CA04205D126F440764A6932438E69D8
:10121C001643466085614A684263036270BC70473E
:10122C00002C014030B4036A23F480730362036A18
:10123C004568C26922F073020C68224323F40073E0
:10124C008C6843EA04230E4CA04206D123F40063BD
:10125C00CC6843EA042323F48063094CA04207D1F1
:10126C0025F440554C6945EA04158C6945EA04158A
:10127C004560C2614A68C263036230BC704700BFFC
:10128C00002C014030B4036A23F480530362036AD8
:10129C004468C26922F4E6420D6842EA052223F44E
:1012AC0000538D6843EA0533074DA84204D124F45A
:1012BC0080444D6944EA85144460C2614A68026402
:1012CC00036230BC704700BF002C014003681A4A0F
:1012DC0090420AD0B0F1804F07D0A2F594329042E0
:1012EC0003D002F58062904203D123F070034A6868
:1012FC001343114A90420AD0B0F1804F07D0A2F5A7
:10130C009432904203D002F58062904203D123F4D0
:10131C004073CA68134323F080034A691343036084
:10132C008B68C3620B688362034B984201D10B69D3
:10133C000363012343617047002C0140B8B110B521
:10134C00044690F83D3013F0FF0F04D1002380F8D1
:10135C003C3000F089FA022384F83D30211D2068CE
:10136C00FFF7B4FF012384F83D30002010BD0120AD
:10137C00704700BF30B4036A23F010030362036AA2
:10138C004468826922F4E6420D6842EA052223F0A1
:10139C0020038D6843EA05130D4DA84206D123F0B6
:1013AC008003CD6843EA051323F04003084DA8429F
:1013BC0007D124F440644D6944EA85048D6944EAFC
:1013CC008504446082614A688263036230BC704762
:1013DC00002C014090F83C30012B28D010B504466D
:1013EC00012380F83C30022380F83D300C2A17D8BA
:1013FC00DFE802F0071616160B1616160F16161641
:10140C0013000068FFF7E2FE0AE00068FFF7B2FF86
:10141C0006E00068FFF706FF02E00068FFF732FF06
:10142C00012384F83D30002084F83C0010BD0220DC
:10143C00704700BF90F83C30012B25D0012380F879
:10144C003C30CB6823F440728B68134323F48062E6
:10145C004B68134323F400620B68134323F480524C
:10146C000B69134323F400524B69134323F4804359
:10147C008A69134323F40043134302685364002323
:10148C0080F83C30184670470220704790F83C308A
:10149C00012B21D030B4012280F83C20022380F8AB
:1014AC003D300468636823F070036360046865680A
:1014BC000B682B4363600468A36823F08003A3606C
:1014CC000468A5684B682B43A36080F83D2000237B
:1014DC0080F83C30184601E00220704730BC704761
:1014EC0084B00F4B9A6942F020029A619A6902F01B
:1014FC0020020192019A9A6942F008029A619A6953
:10150C0002F008020292029A9A6942F004029A616D
:10151C009B6903F004030393039B04B0704700BF63
:10152C000010024000B583B00E4B5A6942F0010224
:10153C005A615B6903F001030193019B0022114680
:10154C000C20FFF7E9F80C20FFF718F900221146E0
:10155C001020FFF7E1F81020FFF710F903B05DF849
:10156C0004FB00BF00100240FEE700BF00B591B0C5
:10157C002B482C4B036007234360002383604FF4FC
:10158C007A72C260036143618361FFF7D7FE18B1C1
:10159C00F5212548FFF7E8FF00230E930F930EA9C2
:1015AC001F48FFF773FF18B1FC211F48FFF7DCFF42
:1015BC0000220792089209920A920B920C920D92B9
:1015CC0007A91748FFF706FF20B14FF4847116489E
:1015DC00FFF7CAFF082207A91148FFF7FBFE20B14D
:1015EC0040F20D111048FFF7BFFF00230093019349
:1015FC000293C822039204934FF40052059206936F
:10160C0069460748FFF716FF20B140F2191106484A
:10161C00FFF7AAFF024800F085F911B05DF804FB52
:10162C00B4000020002C0140241C000800B591B02F
:10163C00012206924FF480330793002108910A92FD
:10164C0002220D920E934FF400230F9306A8FFF77E
:10165C00ADFA18B1C7211548FFF786FF0F23019388
:10166C0002230293002303934FF4806204920593A8
:10167C00012101A8FFF7D2FC18B1D5210B48FFF7C7
:10168C0073FFFFF78DFD0A4BA3FB00308009FFF7BA
:10169C0081F80420FFF794F8002211464FF0FF3038
:1016AC00FFF73AF811B05DF804FB00BF241C0008EA
:1016BC00D34D621030B583B0FEF7F8FFFFF7B6FFDD
:1016CC00FFF70EFFFFF72EFFFFF750FF384B53F8D5
:1016DC00040B019018680090364C2268536C23F070
:1016EC00FF03536440F6C41000F012FA23685A6CDE
:1016FC00104358641A6900251D614FF47A72DA623E
:10170C0007229A621A6842F080021A60236840F23B
:10171C00E7325A622A460121204600F071F92A4626
:10172C000321204600F06CF923689A6942F03002DC
:10173C009A61DA6942F03002DA611F4B1B681F4A6A
:10174C009A6001AADA601E490A681E489060C2F8C5
:10175C000CD00220586050601A6842F001021A60E6
:10176C000A68136843F0010313602368DA6842F4D3
:10177C000072DA60DA6842F40062DA601A6A42F0E7
:10178C0004021A621A6A42F480621A621A6A42F0FD
:10179C0001021A621A6A42F480721A625A6C42F49A
:1017AC0000425A641A6842F001021A60FEE700BF58
:1017BC00041C0008B40000202C000020342C014034
:1017CC00700000203C2C014000B583B0244B9A697A
:1017DC0042F001029A619A6902F001020092009AA9
:1017EC00DA6942F08052DA61DB6903F080530193CD
:1017FC00019B0320FEF77EFF002211466FF00B00C9
:10180C00FEF78AFF002211466FF00A00FEF784FFF4
:10181C00002211466FF00900FEF77EFF00221146F0
:10182C006FF00400FEF778FF002211466FF0030002
:10183C00FEF772FF002211466FF00100FEF76CFFFD
:10184C00002211464FF0FF30FEF766FF054A536841
:10185C0023F0E06343F00073536003B05DF804FBC6
:10186C0000100240000001400268284B9A424BD104
:10187C0010B582B0044603F564439A6942F40062E1
:10188C009A619B6903F400630193019B2048214BEF
:10189C00036010234360002383608023C3604FF4F4
:1018AC00807303614FF480634361202383614FF4A1
:1018BC000053C361FEF79AFF18B171211648FFF768
:1018CC0053FE134B63625C621448154B0360102388
:1018DC004360002383608023C3604FF480730361F3
:1018EC004FF480634361202383614FF40053C36141
:1018FC00FEF77CFF18B181210748FFF735FE074B37
:10190C00E3625C6202B010BD704700BF002C014066
:10191C002C0000201C000240341C00087000002029
:10192C006C00024002680D4B9A4216D110B584B07F
:10193C004FF4204300930224019403946946084811
:10194C00FFF732F84FF4A0630093019403946946B7
:10195C000448FFF729F804B010BD7047002C014073
:10196C00000C014000080140704700BFFEE700BFBB
:10197C00FEE700BFFEE700BFFEE700BF704700BFF9
:10198C00704700BF704700BF08B5FEF7A1FEFEF719
:10199C0029FF08BD08B50248FEF764FF08BD00BF6B
:1019AC002C00002008B50248FEF75CFF08BD00BF04
:1019BC00700000200F4B1A6842F001021A6059683F
:1019CC000D4A0A405A601A6822F0847222F480325E
:1019DC001A601A6822F480221A605A6822F4FE02F5
:1019EC005A604FF41F029A604FF00062034B9A60EA
:1019FC00704700BF001002400000FFF800ED00E04F
:101A0C00012902D103685A637047022902D1036885
:101A1C009A637047032902D10368DA63704704297B
:101A2C0001D103681A64704708B5FFF7BFFBFEF7D6
:101A3C004BFC01464FF07E50FEF752FD0249FEF77B
:101A4C009BFCFEF7E9FD08BD286B6E4E10B48BB203
:101A5C005A0092B2DB009BB2044620B189B2C90194
:101A6C00013988420FD9B4EB821F03D3D201013A5A
:101A7C0094420AD9B4EB431F09D39B01013B9C420E
:101A8C0007D9E02006E0002004E0802002E0E020FE
:101A9C0000E0C02010BC704730B48BB25C00A4B224
:101AAC00DD00ADB21B019BB2024640B189B2C80148
:101ABC000138824203D8B2FBF1F0C0B226E0B2EB9F
:101ACC00841F08D3E10101398A4204D8B2FBF4F037
:101ADC004038C0B21AE0B2EB451F08D3A901013956
:101AEC008A4204D8B2FBF5F02038C0B20EE0B2EB5B
:101AFC00431F08D3990101398A4206D8B2FBF3F08F
:101B0C002038C0B202E01F2000E01F2030BC70471C
:101B1C0070B50446FFF788FF054601462046FFF7DF
:101B2C0095FFC6B229462046FFF7B6FFC0B2304338
:101B3C0070BD00BF002103E00B4B5B5843500431D8
:101B4C000A480B4B42189A42F6D30A4A02E0002389
:101B5C0042F8043B084B9A42F9D3FFF72BFF00F0F5
:101B6C000FF8FFF7A7FD7047581C00080000002075
:101B7C000C0000200C000020F4000020FEE7000008
:101B8C000E4B70B51E460E4C0025E41AA410A5424F
:101B9C0004D056F8253098470135F8E700F016F8D0
:101BAC00084B094C1E46E41AA4100025A54204D08B
:101BBC0056F8253098470135F8E770BD501C0008E1
:101BCC00501C0008501C0008541C0008F8B500BF3D
:101BDC00F8BC08BC9E467047F8B500BFF8BC08BC02
:041BEC009E4670475A
:101BF00002030405060708090A0B0C0D0E0F10104E
:101C0000010200005E0164003F02260200000000A5
:101C1000000000000102030406070809000000009C
:101C2000010203042E2E2F5372632F6D61696E2EF5
:101C3000630000002E2E2F5372632F73746D3332A6
:101C4000663178785F68616C5F6D73702E63000039
:041C50003101000856
:041C54000D01000876
:0C1C5800010000001000000000A24A047F
:0400000508001B4193
:00000001FF
