:020000040800F2
:10000000005000208D120008E5110008E7110008DB
:10001000E9110008EB110008ED11000800000000D4
:10002000000000000000000000000000EF110008C8
:10003000F111000800000000F3110008F51100089C
:10004000D5120008D5120008D5120008D5120008F4
:10005000D5120008D5120008D5120008D5120008E4
:10006000D5120008D5120008D5120008D5120008D4
:10007000D5120008D5120008D5120008D5120008C4
:10008000D5120008D5120008D5120008D5120008B4
:10009000D5120008D5120008D5120008D5120008A4
:1000A000D5120008D5120008D5120008D512000894
:1000B000D5120008D5120008D5120008D512000884
:1000C000D5120008D5120008D5120008D512000874
:1000D000D5120008D5120008D5120008D512000864
:1000E000D5120008D5120008D51200080000000043
:1000F0000000000000000000000000000000000000
:0C01000000000000000000005FF808F1A3
:10010C0010B5054C237833B9044B13B10448AFF345
:10011C0000800123237010BD0C00002000000000A3
:10012C002013000808B5034B1BB103490348AFF378
:10013C00008008BD00000000100000202013000803
:10014C0010B504460E4B18784FF47A73B3FBF0F3EA
:10015C000C4A1068B0FBF3F000F094F868B90F2C5F
:10016C0001D901200AE0002221464FF0FF3000F0B7
:10017C0055F8034B5C60002000E0012010BD00BF6F
:10018C00000000200800002008B5074A136843F05F
:10019C0010031360032000F02FF80020FFF7D0FFAE
:1001AC0000F092FF002008BD00200240034A1168B5
:1001BC00034B1B780B441360704700BF28000020D2
:1001CC0000000020014B1868704700BF2800002079
:1001DC0038B50446FFF7F6FF0546B4F1FF3F02D0F1
:1001EC00044B1B781C44FFF7EDFF401BA042FAD3D5
:1001FC0038BD00BF00000020074AD36823F4E06339
:10020C001B041B0C000200F4E060184340F0BF60BC
:10021C0040F40030D060704700ED00E030B4174B74
:10022C00DB68C3F30223C3F10704042C28BF0424A6
:10023C001D1D062D18D9033B4FF0FF3505FA04F4AC
:10024C0021EA0401994005FA03F322EA0303194356
:10025C0000280BDB0901C9B200F1604000F56140D8
:10026C0080F8001330BC70470023E5E700F00F0066
:10027C000901C9B2024B1954F4E700BF00ED00E0CC
:10028C0014ED00E00138B0F1807F0AD2064B5860C3
:10029C00064AF02182F823100020986007221A6089
:1002AC0070470120704700BF10E000E000ED00E057
:1002BC00042805D0054A136823F004031360704723
:1002CC00024A136843F004031360704710E000E027
:1002DC00704708B5FFF7FCFF08BD0000F0B482B012
:1002EC0000263546A1E0002C59D0012C00D1CE6857
:1002FC00FF2B68D88446FF2B68D8AC00DCF80020B4
:10030C000F27A74022EA070206FA04F42243CCF88E
:10031C0000204A6812F0805F00F086805E4A946983
:10032C0044F001049461926902F001020192019A75
:10033C00AC08A71C594A52F8272005F00307BF0048
:10034C004FF00F0C0CFA07FC22EA0C0C544A9042AA
:10035C0042D002F5806290427FD002F580629042DA
:10036C007DD002F58062904234D0042235E04D4FAE
:10037C00BC4214D00BD94C4FBC4210D007F580377F
:10038C00BC420CD0A7F58017BC42B1D107E0A7F551
:10039C008017BC4203D007F58037BC42A8D18C68CB
:1003AC007CB1012C08D042610826A1E7CE68083642
:1003BC009EE7CE680C369BE70261082698E700267C
:1003CC0096E7042694E700F1040C94E7A5F10804E1
:1003DC00A40093E7032200E00022BA4042EA0C0298
:1003EC0002342E4F47F824204A6812F4803F38D04C
:1003FC002E4C22681A4322604A6812F4003F36D011
:10040C002A4C62681A4362604A6812F4801F34D026
:10041C00264CA2681A43A2604A6812F4001F32D01C
:10042C00224CE2681343E36001350F2D31D80122D1
:10043C00AA400B6813409A42F6D14C68122CB8D0E3
:10044C0095D8022CB2D07FF64EAF032CB7D0112C1E
:10045C007FF44EAFCE6804364AE70122BDE7022294
:10046C00BBE7124C226822EA03022260C4E70F4C5D
:10047C00626822EA03026260C6E70C4CA26822EAB8
:10048C000302A260C8E7094CE26822EA0303E360B6
:10049C00CAE702B0F0BC70470010024000000140F7
:1004AC000008014000002110000031100004014040
:1004BC0082B0084B1B68084AA2FB03235B0A00FBB3
:1004CC0003F0019000BF019B5A1E0192002BF9D141
:1004DC0002B0704708000020D34D621070B582B096
:1004EC000446036813F0010F2CD0AB4B5B6803F090
:1004FC000C03042B1DD0A84B5B6803F00C03082BDA
:10050C0012D06368B3F5803F41D0002B55D103F175
:10051C00804303F504331A6822F480321A601A6897
:10052C0022F480221A6037E09B4B5B6813F4803F07
:10053C00E7D0994B1B6813F4003F03D06368002B82
:10054C0000F0AE81236813F0020F76D0924B5B68FB
:10055C0013F00C0F5FD0904B5B6803F00C03082B6F
:10056C0054D02369002B00F08A808C4B01221A6036
:10057C00FFF728FE0546884B1B6813F0020F75D158
:10058C00FFF720FE401B0228F5D903208BE1824A9D
:10059C00136843F480331360636843B3FFF712FEB0
:1005AC0005467D4B1B6813F4003FCBD1FFF70AFEC9
:1005BC00401B6428F5D9032075E1B3F5A02F09D0B1
:1005CC00754B1A6822F480321A601A6822F4802261
:1005DC001A60E1E703F18043A3F53C331A6842F457
:1005EC0080221A601A6842F480321A60D4E7FFF74E
:1005FC00E9FD0546684B1B6813F4003FA2D0FFF7DA
:10060C00E1FD401B6428F5D903204CE1624B5B688B
:10061C0013F4803FA5D1604B1B6813F0020F04D07C
:10062C002369012B01D001203DE15B4A136823F0C3
:10063C00F803616943EAC1031360236813F0080FE0
:10064C0032D0A369002B5BD0554B01221A60FFF707
:10065C00B9FD0546504B5B6A13F0020F21D1FFF731
:10066C00B1FD401B0228F5D903201CE14A4A13684E
:10067C0023F0F803616943EAC1031360DDE7474BDC
:10068C0000221A60FFF79EFD0546434B1B6813F0D2
:10069C00020FD2D0FFF796FD401B0228F5D903209C
:1006AC0001E10120FFF704FF236813F0040F00F0B1
:1006BC009780394BDB6913F0805F33D1364BDA69A5
:1006CC0042F08052DA61DB6903F080530193019BA5
:1006DC000125344B1B6813F4807F25D0E368012B74
:1006EC0036D0002B4CD103F1804303F504331A6A46
:1006FC0022F001021A621A6A22F004021A622CE039
:10070C00274B00221A60FFF75DFD0546224B5B6A02
:10071C0013F0020FC8D0FFF755FD401B0228F5D986
:10072C000320C0E00025D4E71E4A136843F480730D
:10073C001360FFF747FD06461A4B1B6813F4807FC6
:10074C00CCD1FFF73FFD801B6428F5D90320AAE02C
:10075C00114A136A43F001031362E36873B3FFF7A2
:10076C0031FD06460C4B1B6A13F0020F37D1FFF715
:10077C0029FD801B41F288339842F3D9032092E083
:10078C00052B11D0044B1A6A22F001021A621A6A64
:10079C0022F004021A62E0E700100240000042421C
:1007AC008004424200700040414B1A6A42F004023D
:1007BC001A621A6A42F001021A62CEE7FFF702FDD2
:1007CC0006463B4B1B6A13F0020F08D0FFF7FAFCEE
:1007DC00801B41F288339842F3D9032063E0E5B9DA
:1007EC00E369002B5ED0324A526802F00C02082AF0
:1007FC005BD0022B17D02F4B00221A60FFF7E2FCC4
:10080C0004462B4B1B6813F0007F47D0FFF7DAFC34
:10081C00001B0228F5D9032045E0254AD36923F0B3
:10082C008053D361DCE7234B00221A60FFF7CAFC2C
:10083C0005461F4B1B6813F0007F06D0FFF7C2FC68
:10084C00401B0228F5D903202DE0236AB3F5803F25
:10085C001AD017494B6823F47413226A606A024356
:10086C0013434B60134B01221A60FFF7ABFC044699
:10087C000F4B1B6813F0007F0ED1FFF7A3FC001B7E
:10088C000228F5D903200EE0094A536823F40033FB
:10089C00A1680B435360DCE7002004E0002002E079
:1008AC00012000E0002002B070BD0120FBE700BF7A
:1008BC00001002406000424210B487B0164C94E81D
:1008CC000F000DF1180C0CE90F00238AADF8043061
:1008DC00124B5B6803F00C02082A1AD1C3F3834253
:1008EC00624412F8102C13F4803F05D10C4800FB25
:1008FC0002F007B010BC7047084B5B68C3F3404371
:10090C00634413F8143C074800FB02F0B0FBF3F00F
:10091C00EFE70448EDE700BF381300080010024071
:10092C0000093D0000127A00594B1B6803F00703C5
:10093C008B420CD2564A136823F007030B43136007
:10094C00136803F007038B4201D00120704770B588
:10095C00036813F0020F06D04E4A536823F0F003DD
:10096C008468234353600C460546036813F0010F5B
:10097C0052D04368012B23D0022B28D0454A126851
:10098C0012F0020F00F0828042494A6822F0030202
:10099C0013434B60FFF716FC06466B68012B1DD00A
:1009AC00022B2AD03B4B5B6813F00C0F34D0FFF7B3
:1009BC0009FC801B41F288339842F3D9032064E090
:1009CC00344A126812F4003FDED101205DE0314A56
:1009DC00126812F0007FD7D1012056E02D4B5B68D6
:1009EC0003F00C03042B17D0FFF7ECFB801B41F238
:1009FC0088339842F2D9032047E0264B5B6803F01A
:100A0C000C03082B08D0FFF7DDFB801B41F2883369
:100A1C009842F2D9032038E01D4B1B6803F0070302
:100A2C00A3420CD91A4A136823F00703234313601B
:100A3C00136803F00703A34201D0012025E02B68C3
:100A4C0013F0040F06D0134A536823F4E063E968EB
:100A5C000B4353602B6813F0080F07D00D4A5368F3
:100A6C0023F46053296943EAC1035360FFF724FF61
:100A7C00084B5B68C3F30313074AD35CD840074B9E
:100A8C0018600020FFF75CFB002070BD0120FCE724
:100A9C0000200240001002404C1300080800002007
:100AAC00014B1868704700BF0800002070B4036A3F
:100ABC0023F001030362036A4268846924F073041F
:100ACC000D6845EA040623F002048B6823430D4DA0
:100ADC00A84209D00B4DA8420DD0426086614A68ED
:100AEC004263036270BC704723F00803CC68234355
:100AFC0023F00403EEE722F440724C6914438A6934
:100B0C002243EAE7002C014030B4036A23F48073DB
:100B1C000362036A4268C46924F073040D682C43B1
:100B2C0023F400738D6843EA05230F4DA84209D0C6
:100B3C000D4DA8420ED04260C4614A68C263036284
:100B4C0030BC704723F40063CD6843EA052323F4DB
:100B5C008063EDE722F440524D6942EA05128D693B
:100B6C0042EA0512E7E700BF002C014030B4036AEB
:100B7C0023F480530362036A4468C26922F4E64298
:100B8C000D6842EA052223F400538D6843EA0533CD
:100B9C00074DA84206D04460C2614A6802640362F1
:100BAC0030BC704724F480444D6944EA8514F2E764
:100BBC00002C014003681B4A90420AD0B0F1804FD0
:100BCC0007D0A2F59432904203D002F58062904295
:100BDC0003D123F070034A681343124A90420AD09F
:100BEC00B0F1804F07D0A2F59432904203D002F5B9
:100BFC008062904203D123F44073CA68134323F0FC
:100C0C0080034A69134303608B68C3620B68836279
:100C1C00044B984202D00123436170470B69036374
:100C2C00F9E700BF002C0140A8B110B5044690F8BC
:100C3C003D305BB1022384F83D30211D2068FFF765
:100C4C00B9FF012384F83D30002010BD80F83C3002
:100C5C0000F08AFAEEE701207047000030B4036A16
:100C6C0023F010030362036A4468826922F4E642AB
:100C7C000D6842EA052223F020038D6843EA051330
:100C8C000E4DA84209D00D4DA8420ED04460826191
:100C9C004A688263036230BC704723F08003CD68DE
:100CAC0043EA051323F04003EDE724F440644D6957
:100CBC0044EA85048D6944EA8504E7E7002C014089
:100CCC0038B590F83C30012B66D00D460446012314
:100CDC0080F83C30022380F83D300C2A1AD8DFE82B
:100CEC0002F0071919192019191934191919470083
:100CFC000068FFF7DBFE2268936943F008039361F9
:100D0C002268936923F0040393612268936929692B
:100D1C000B439361012384F83D30002084F83C00A0
:100D2C0038BD0068FFF79AFF2268936943F40063AB
:100D3C0093612268936923F48063936122689369B9
:100D4C00296943EA01239361E4E70068FFF7DCFEBD
:100D5C002268D36943F00803D3612268D36923F076
:100D6C000403D3612268D36929690B43D361D1E7AA
:100D7C000068FFF7FBFE2268D36943F40063D3617C
:100D8C002268D36923F48063D3612268D36929690B
:100D9C0043EA0123D361BDE70220C1E710B401236C
:100DAC0003FA01F4036A23EA04030362036A8A4028
:100DBC001343036210BC704710B50446012200684F
:100DCC00FFF7ECFF2368074A934206D022681368AA
:100DDC0043F001031360002010BD5A6C42F4004232
:100DEC005A64F3E7002C014090F83C30012B25D0DD
:100DFC00012380F83C30CB6823F440738A6813439A
:100E0C0023F480634A68134323F400630A68134392
:100E1C0023F480530A69134323F400534A691343A0
:100E2C0023F480438A69134323F400431343026879
:100E3C005364002380F83C301846704702207047FA
:100E4C0090F83C30012B22D030B4012280F83C20A9
:100E5C00022380F83D300468636823F070036360FC
:100E6C00046863680D682B4363600468A36823F00F
:100E7C008003A3600468A36849680B43A36080F8EF
:100E8C003D20002380F83C30184630BC70470220CF
:100E9C007047000084B00F4B9A6942F020029A61AF
:100EAC009A6902F020020192019A9A6942F00802B2
:100EBC009A619A6902F008020292029A9A6942F0C7
:100ECC0004029A619B6903F004030393039B04B02F
:100EDC00704700BF00100240FEE7000000B591B063
:100EEC002F48304B036007234360002383604FF48B
:100EFC007A72C260036143618361FFF795FE00283B
:100F0C0037D100230E930F930EA92548FFF798FFB6
:100F1C00002832D1602307934FF4FA730893002210
:100F2C0009920A920B920C920D9207A91C48FFF79A
:100F3C00C7FE30BB4FF448730893042207A9184826
:100F4C00FFF7BEFE10BB0023009301930293C8224F
:100F5C00039204934FF4005205920693694610488D
:100F6C00FFF742FFB8B90E4800F014F911B05DF864
:100F7C0004FBF6210C48FFF7AFFFFD210A48FFF7F1
:100F8C00ABFF40F209110848FFF7A6FF40F20F1122
:100F9C000548FFF7A1FF40F21B110348FFF79CFF28
:100FAC002C000020002C01406413000800B591B007
:100FBC00012106914FF480320792002308930A9185
:100FCC0002210D910E920F9306A8FFF787FA18BB1A
:100FDC000F23019302230293002103914FF48063AA
:100FEC0004934FF4A063059301A8FFF79DFCB8B9D7
:100FFC00FFF756FD0C4BA3FB00308009FFF742F9BD
:10100C000420FFF755F9002211464FF0FF30FFF78F
:10101C0005F911B05DF804FBC8210448FFF75CFF2B
:10102C00D6210248FFF758FFD34D62106413000815
:10103C0000B583B0FFF7A8F8FFF7B8FFFFF72AFF5A
:10104C00FFF74CFF1F4C23685A6C22F0FF025A64C6
:10105C005A6C42F0C8025A641A6900251D614FF49B
:10106C00FA7300934FF47A7307220121204600F0A3
:10107C00E7F84FF4487300934FF47A730722022178
:10108C00204600F0DDF823689A6942F060029A610C
:10109C009A6942F4C0429A611A6A42F004021A62D6
:1010AC0029462046FFF788FEC820FFF791F82268F2
:1010BC00136A43F04003136204212046FFF77CFEC1
:1010CC00FEE700BF2C00002000B583B0244B9A69CA
:1010DC0042F001029A619A6902F001020092009AB0
:1010EC00DA6942F08052DA61DB6903F080530193D4
:1010FC00019B0320FFF780F8002211466FF00B00D4
:10110C00FFF78CF8002211466FF00A00FFF786F803
:10111C00002211466FF00900FFF780F800221146FB
:10112C006FF00400FFF77AF8002211466FF003000D
:10113C00FFF774F8002211466FF00100FFF76EF80C
:10114C00002211464FF0FF30FFF768F8054A53684C
:10115C0023F0E06343F00073536003B05DF804FBCD
:10116C0000100240000001400268094B9A4200D076
:10117C00704782B003F564439A6942F400629A6145
:10118C009B6903F400630193019B02B0704700BF9D
:10119C00002C014002680D4B9A4200D0704710B5EC
:1011AC0084B04FF4C0430093022401940394694625
:1011BC000748FFF793F84FF440730093019403949E
:1011CC0069460448FFF78AF804B010BD002C0140B2
:1011DC00000C0140000801407047FEE7FEE7FEE707
:1011EC00FEE770477047704708B5FEF7DFFFFFF763
:1011FC0070F808BD0F4B1A6842F001021A6059686A
:10120C000D4A0A405A601A6822F0847222F4803225
:10121C001A601A6822F480221A605A6822F4FE02BC
:10122C005A604FF41F029A60044B4FF000629A60B0
:10123C00704700BF001002400000FFF800ED00E016
:10124C0010B40468E3620368013A9A62012909D078
:10125C0002290CD003290ED0042906D10368019A67
:10126C001A6402E00368019A5A6310BC7047036861
:10127C00019A9A63F9E70368019ADA63F5E70000CB
:10128C00002103E00B4B5B58435004310A480B4BD5
:10129C0042189A42F6D30A4A02E0002342F8043B71
:1012AC00084B9A42F9D3FFF7A5FF00F00FF8FFF7B0
:1012BC00BFFE70477C130008000000200C000020CB
:1012CC000C0000206C000020FEE7000070B500252B
:1012DC000C4E0D4CA41BA410A54209D100F01AF819
:1012EC0000250A4E0A4CA41BA410A54205D170BDC2
:1012FC0056F8253098470135EEE756F825309847D3
:10130C000135F2E774130008741300087413000815
:10131C0078130008F8B500BFF8BC08BC9E467047AF
:0C132C00F8B500BFF8BC08BC9E46704736
:1013380002030405060708090A0B0C0D0E0F10100E
:101348000102000000000000000000000102030488
:101358000607080900000000010203042E2E2F537F
:0C13680072632F6D61696E2E630000003F
:04137400310100083B
:041378000D0100085B
:0C137C00010000001000000000A24A0464
:040000050800128D50
:00000001FF
