:020000040800F2
:1000000000500020151B000845190008471900087A
:10001000491900084B1900084D190008000000009C
:100020000000000000000000000000004F19000860
:100030005119000800000000531900085519000864
:100040005D1B00085D1B00085D1B00085D1B0008B0
:100050005D1B00085D1B00085D1B00085D1B0008A0
:100060005D1B00085D1B00085D1B00085D1B000890
:1000700061190008711900085D1B00085D1B00086C
:100080005D1B00085D1B00085D1B00085D1B000870
:100090005D1B00085D1B00085D1B00085D1B000860
:1000A0005D1B00085D1B00085D1B00085D1B000850
:1000B0005D1B00085D1B00085D1B00085D1B000840
:1000C0005D1B00085D1B00085D1B00085D1B000830
:1000D0005D1B00085D1B00085D1B00085D1B000820
:1000E0005D1B00085D1B00085D1B00080000000090
:1000F0000000000000000000000000000000000000
:0C01000000000000000000005FF808F1A3
:10010C0010B5054C237833B9044B13B10448AFF345
:10011C0000800123237010BD0C00002000000000A3
:10012C00A81B000808B5034B1BB103490348AFF3E8
:10013C00008008BD0000000010000020A81B000873
:10014C0080F0004002E000BF81F0004142001FBF80
:10015C005FEA410392EA030F7FEA226C7FEA236C89
:10016C006AD04FEA1262D2EB1363C1BFD21841407E
:10017C0048404140B8BF5B42192B88BF704710F014
:10018C00004F40F4000020F07F4018BF404211F0B7
:10019C00004F41F4000121F07F4118BF494292EA1F
:1001AC00030F3FD0A2F1010241FA03FC10EB0C004B
:1001BC00C3F1200301FA03F100F0004302D54942D8
:1001CC0060EB4000B0F5000F13D3B0F1807F06D385
:1001DC0040084FEA310102F10102FE2A51D2B1F17D
:1001EC00004F40EBC25008BF20F0010040EA030072
:1001FC007047490040EB000010F4000FA2F101021F
:10020C00EDD1B0FA80FCACF1080CB2EB0C0200FAA8
:10021C000CF0AABF00EBC25052421843BCBFD040F6
:10022C001843704792F0000F81F4000106BF80F470
:10023C0000000132013BB5E74FEA41037FEA226C33
:10024C0018BF7FEA236C21D092EA030F04D092F0FE
:10025C00000F08BF0846704790EA010F1CBF002032
:10026C00704712F07F4F04D1400028BF40F000408F
:10027C00704712F100723CBF00F50000704700F0AF
:10028C00004343F0FE4040F4000070477FEA2262D6
:10029C0016BF08467FEA23630146420206BF5FEAA7
:1002AC00412390EA010F40F4800070474FF00003A7
:1002BC0004E000BF10F0004348BF40425FEA000C6E
:1002CC0008BF704743F0964301464FF000001CE016
:1002DC0050EA010208BF70474FF000030AE000BF6C
:1002EC0050EA010208BF704711F0004302D54042AA
:1002FC0061EB41015FEA010C02BF8446014600201C
:10030C0043F0B64308BFA3F18053A3F50003BCFA36
:10031C008CF2083AA3EBC25310DB01FA02FC6344E3
:10032C0000FA02FCC2F12002BCF1004F20FA02F2EA
:10033C0043EB020008BF20F00100704702F12002DD
:10034C0001FA02FCC2F1200250EA4C0021FA02F23E
:10035C0043EB020008BF20EADC7070474FF0FF0C43
:10036C001CEAD0521EBF1CEAD15392EA0C0F93EA3E
:10037C000C0F6FD01A4480EA010C400218BF5FEAE0
:10038C0041211ED04FF0006343EA501043EA511153
:10039C00A0FB01310CF00040B1F5000F3EBF49004D
:1003AC0041EAD3715B0040EA010062F17F02FD2A51
:1003BC001DD8B3F1004F40EBC25008BF20F0010034
:1003CC00704790F0000F0CF0004C08BF49024CEA4B
:1003DC00502040EA51207F3AC2BFD2F1FF0340EADD
:1003EC00C250704740F400004FF00003013A5DDC4E
:1003FC0012F1190FDCBF00F000407047C2F100028F
:10040C00410021FA02F1C2F1200200FA02FC5FEA7B
:10041C00310040F1000053EA4C0308BF20EADC70C5
:10042C00704792F0000F00F0004C02BF400010F437
:10043C00000F013AF9D040EA0C0093F0000F01F0E4
:10044C00004C02BF490011F4000F013BF9D041EA06
:10045C000C018FE70CEAD15392EA0C0F18BF93EA08
:10046C000C0F0AD030F0004C18BF31F0004CD8D132
:10047C0080EA010000F00040704790F0000F17BFB9
:10048C0090F0004F084691F0000F91F0004F14D0FF
:10049C0092EA0C0F01D142020FD193EA0C0F03D157
:1004AC004B0218BF084608D180EA010000F000405A
:1004BC0040F0FE4040F40000704740F0FE4040F435
:1004CC00400070474FF0FF0C1CEAD0521EBF1CEAD4
:1004DC00D15392EA0C0F93EA0C0F69D0A2EB0302F2
:1004EC0080EA010C49024FEA402037D04FF080538C
:1004FC0043EA111143EA10130CF000408B4238BF51
:10050C005B0042F17D024FF4000C8B4224BF5B1A5E
:10051C0040EA0C00B3EB510F24BFA3EB510340EAAC
:10052C005C00B3EB910F24BFA3EB910340EA9C005A
:10053C00B3EBD10F24BFA3EBD10340EADC001B01CA
:10054C0018BF5FEA1C1CE0D1FD2A3FF650AF8B426E
:10055C0040EBC25008BF20F0010070470CF0004C7B
:10056C004CEA50207F32C2BFD2F1FF0340EAC250A6
:10057C00704740F400004FF00003013A37E792F067
:10058C00000F00F0004C02BF400010F4000F013AC5
:10059C00F9D040EA0C0093F0000F01F0004C02BFC0
:1005AC00490011F4000F013BF9D041EA0C0195E729
:1005BC000CEAD15392EA0C0F08D142027FF47DAFC2
:1005CC0093EA0C0F7FF470AF084676E793EA0C0FB2
:1005DC0004D14B023FF44CAF08466EE730F0004CB0
:1005EC0018BF31F0004CCAD130F000427FF45CAF40
:1005FC0031F000437FF43CAF5FE700BF4FEA4002AD
:10060C00B2F1FE4F0FD34FF09E03B3EB12620DD934
:10061C004FEA002343F0004310F0004F23FA02F09E
:10062C0018BF404270474FF00000704712F1610F45
:10063C0001D1420205D110F0004008BF6FF000401C
:10064C0070474FF00000704710B504460E4B1878F9
:10065C004FF47A73B3FBF0F30C4A1068B0FBF3F071
:10066C0000F08CF868B90F2C01D901200AE00022A7
:10067C0021464FF0FF3000F041F8034B5C60002046
:10068C0000E0012010BD00BF000000200800002089
:10069C0008B5074A136843F010031360032000F0F9
:1006AC001BF80020FFF7D0FF01F078F8002008BD00
:1006BC0000200240034A1168034B1B780B44136063
:1006CC00704700BF2800002000000020014B186874
:1006DC00704700BF28000020074AD36823F4E0636A
:1006EC001B041B0C000200F4E060184340F0BF60D8
:1006FC0040F40030D060704700ED00E030B4174B90
:10070C00DB68C3F30223C3F10704042C28BF0424C1
:10071C001D1D062D18D9033B4FF0FF3505FA04F4C7
:10072C0021EA0401994005FA03F322EA0303194371
:10073C0000280BDB0901C9B200F1604000F56140F3
:10074C0080F8001330BC70470023E5E700F00F0081
:10075C000901C9B2024B1954F4E700BF00ED00E0E7
:10076C0014ED00E000F01F02400901239340024AFF
:10077C0042F82030704700BF00E100E00138B0F1D2
:10078C00807F0AD2064B5860064AF02182F823106B
:10079C000020986007221A6070470120704700BF44
:1007AC0010E000E000ED00E0042805D0054A1368D5
:1007BC0023F0040313607047024A136843F00403E8
:1007CC001360704710E000E0704708B5FFF7FCFFBE
:1007DC0008BD0000002830D010B403460168184A48
:1007EC000A441848A0FB0202120992001A64164A25
:1007FC00DA63022283F82120086820F47F5020F06D
:10080C0030005A689C682243DC6822431C692243EE
:10081C005C6922439C692243DC69224302430A60DF
:10082C0000209862D862186358639863012283F899
:10083C00212083F8200010BC70470120704700BFB6
:10084C00F8FFFDBFCDCCCCCC0000024038B5C36B5B
:10085C001A6804682568016C04238B40134235D058
:10086C0015F0040F32D0236813F0200F03D1236846
:10087C0023F0040323600368434A934214D01432D8
:10088C00934218D01432934217D01432934217D09B
:10089C001432934217D01432934202D04FF080623C
:1008AC0003E04FF4800200E00422384B5A60C36A24
:1008BC0003B1984738BD4022F7E74FF48062F4E764
:1008CC004FF48042F1E74FF48022EEE702238B4095
:1008DC0013423CD015F0020F39D0236813F0200FCF
:1008EC0006D1236823F00A032360012380F821300A
:1008FC000368254A934214D0143293421CD014320C
:10090C0093421BD0143293421BD0143293421BD00F
:10091C001432934202D04FF0007203E04FF40012F5
:10092C0000E00222194B5A60002380F82030836AC1
:10093C00002BBFD09847BDE72022F3E74FF400729D
:10094C00F0E74FF40052EDE74FF40032EAE70823EA
:10095C0003FA01F11142ADD015F0080FAAD02368AB
:10096C0023F00E032360026CC16B012303FA02F225
:10097C004A60836380F82130002380F82030036BB9
:10098C00002B97D0984795E70800024000000240E2
:10099C00F0B482B000263546A1E0002C59D0012CD1
:1009AC0000D1CE68FF2B68D88446FF2B68D8AC00EA
:1009BC00DCF800200F27A74022EA070206FA04F40D
:1009CC002243CCF800204A6812F0805F00F0868049
:1009DC005E4A946944F001049461926902F0010248
:1009EC000192019AAC08A71C594A52F8272005F02D
:1009FC000307BF004FF00F0C0CFA07FC22EA0C0C9B
:100A0C00544A904242D002F5806290427FD002F567
:100A1C00806290427DD002F58062904234D00422F4
:100A2C0035E04D4FBC4214D00BD94C4FBC4210D0CA
:100A3C0007F58037BC420CD0A7F58017BC42B1D16A
:100A4C0007E0A7F58017BC4203D007F58037BC42FE
:100A5C00A8D18C687CB1012C08D042610826A1E792
:100A6C00CE6808369EE7CE680C369BE702610826F6
:100A7C0098E7002696E7042694E700F1040C94E727
:100A8C00A5F10804A40093E7032200E00022BA4079
:100A9C0042EA0C0202342E4F47F824204A6812F422
:100AAC00803F38D02E4C22681A4322604A6812F4D8
:100ABC00003F36D02A4C62681A4362604A6812F4CE
:100ACC00801F34D0264CA2681A43A2604A6812F4E4
:100ADC00001F32D0224CE2681343E36001350F2D26
:100AEC0031D80122AA400B6813409A42F6D14C68C7
:100AFC00122CB8D095D8022CB2D07FF64EAF032C66
:100B0C00B7D0112C7FF44EAFCE6804364AE70122E1
:100B1C00BDE70222BBE7124C226822EA03022260E4
:100B2C00C4E70F4C626822EA03026260C6E70C4C11
:100B3C00A26822EA0302A260C8E7094CE26822EA32
:100B4C000303E360CAE702B0F0BC70470010024038
:100B5C00000001400008014000002110000031108D
:100B6C000004014082B0084B1B68084AA2FB032317
:100B7C005B0A00FB03F0019000BF019B5A1E01921F
:100B8C00002BF9D102B0704708000020D34D621041
:100B9C0070B582B00446036813F0010F2CD0AB4B38
:100BAC005B6803F00C03042B1DD0A84B5B6803F0AF
:100BBC000C03082B12D06368B3F5803F41D0002B97
:100BCC0055D103F1804303F504331A6822F48032C3
:100BDC001A601A6822F480221A6037E09B4B5B681B
:100BEC0013F4803FE7D0994B1B6813F4003F03D0FC
:100BFC006368002B00F0AE81236813F0020F76D0EF
:100C0C00924B5B6813F00C0F5FD0904B5B6803F05A
:100C1C000C03082B54D02369002B00F08A808C4BDA
:100C2C0001221A60FFF752FD0546884B1B6813F032
:100C3C00020F75D1FFF74AFD401B0228F5D903209E
:100C4C008BE1824A136843F480331360636843B3C7
:100C5C00FFF73CFD05467D4B1B6813F4003FCBD1E1
:100C6C00FFF734FD401B6428F5D9032075E1B3F57B
:100C7C00A02F09D0754B1A6822F480321A601A68BA
:100C8C0022F480221A60E1E703F18043A3F53C33A0
:100C9C001A6842F480221A601A6842F480321A6090
:100CAC00D4E7FFF713FD0546684B1B6813F4003FB0
:100CBC00A2D0FFF70BFD401B6428F5D903204CE1B3
:100CCC00624B5B6813F4803FA5D1604B1B6813F03B
:100CDC00020F04D02369012B01D001203DE15B4AB6
:100CEC00136823F0F803616943EAC10313602368B6
:100CFC0013F0080F32D0A369002B5BD0554B0122A7
:100D0C001A60FFF7E3FC0546504B5B6A13F0020FC9
:100D1C0021D1FFF7DBFC401B0228F5D903201CE195
:100D2C004A4A136823F0F803616943EAC10313606C
:100D3C00DDE7474B00221A60FFF7C8FC0546434B22
:100D4C001B6813F0020FD2D0FFF7C0FC401B022827
:100D5C00F5D9032001E10120FFF704FF236813F00C
:100D6C00040F00F09780394BDB6913F0805F33D1AF
:100D7C00364BDA6942F08052DA61DB6903F080535A
:100D8C000193019B0125344B1B6813F4807F25D004
:100D9C00E368012B36D0002B4CD103F1804303F5D3
:100DAC0004331A6A22F001021A621A6A22F004024F
:100DBC001A622CE0274B00221A60FFF787FC0546CD
:100DCC00224B5B6A13F0020FC8D0FFF77FFC401B6D
:100DDC000228F5D90320C0E00025D4E71E4A136889
:100DEC0043F480731360FFF771FC06461A4B1B68C3
:100DFC0013F4807FCCD1FFF769FC801B6428F5D9F4
:100E0C000320AAE0114A136A43F001031362E3685A
:100E1C0073B3FFF75BFC06460C4B1B6A13F0020F17
:100E2C0037D1FFF753FC801B41F288339842F3D93A
:100E3C00032092E0052B11D0044B1A6A22F0010218
:100E4C001A621A6A22F004021A62E0E700100240E9
:100E5C00000042428004424200700040414B1A6A3A
:100E6C0042F004021A621A6A42F001021A62CEE7D8
:100E7C00FFF72CFC06463B4B1B6A13F0020F08D005
:100E8C00FFF724FC801B41F288339842F3D90320EE
:100E9C0063E0E5B9E369002B5ED0324A526802F098
:100EAC000C02082A5BD0022B17D02F4B00221A60A1
:100EBC00FFF70CFC04462B4B1B6813F0007F47D04C
:100ECC00FFF704FC001B0228F5D9032045E0254A56
:100EDC00D36923F08053D361DCE7234B00221A60E3
:100EEC00FFF7F4FB05461F4B1B6813F0007F06D081
:100EFC00FFF7ECFB401B0228F5D903202DE0236AF9
:100F0C00B3F5803F1AD017494B6823F47413226A47
:100F1C00606A024313434B60134B01221A60FFF7C4
:100F2C00D5FB04460F4B1B6813F0007F0ED1FFF767
:100F3C00CDFB001B0228F5D903200EE0094A5368AB
:100F4C0023F40033A1680B435360DCE7002004E07A
:100F5C00002002E0012000E0002002B070BD012062
:100F6C00FBE700BF001002406000424210B487B0A3
:100F7C00164C94E80F000DF1180C0CE90F00238AA5
:100F8C00ADF80430124B5B6803F00C02082A1AD13E
:100F9C00C3F38342624412F8102C13F4803F05D142
:100FAC000C4800FB02F007B010BC7047084B5B68A4
:100FBC00C3F34043634413F8143C074800FB02F0AE
:100FCC00B0FBF3F0EFE70448EDE700BFC01B0008EF
:100FDC000010024000093D0000127A00594B1B68BA
:100FEC0003F007038B420CD2564A136823F0070315
:100FFC000B431360136803F007038B4201D00120ED
:10100C00704770B5036813F0020F06D04E4A536850
:10101C0023F0F0038468234353600C4605460368B1
:10102C0013F0010F52D04368012B23D0022B28D090
:10103C00454A126812F0020F00F0828042494A6859
:10104C0022F0030213434B60FFF740FB06466B682C
:10105C00012B1DD0022B2AD03B4B5B6813F00C0FDD
:10106C0034D0FFF733FB801B41F288339842F3D91D
:10107C00032064E0344A126812F4003FDED10120F0
:10108C005DE0314A126812F0007FD7D1012056E0A2
:10109C002D4B5B6803F00C03042B17D0FFF716FBEA
:1010AC00801B41F288339842F2D9032047E0264B4B
:1010BC005B6803F00C03082B08D0FFF707FB801BC1
:1010CC0041F288339842F2D9032038E01D4B1B685B
:1010DC0003F00703A3420CD91A4A136823F0070341
:1010EC0023431360136803F00703A34201D00120CC
:1010FC0025E02B6813F0040F06D0134A536823F431
:10110C00E063E9680B4353602B6813F0080F07D0BA
:10111C000D4A536823F46053296943EAC1035360B1
:10112C00FFF724FF084B5B68C3F30313074AD35C38
:10113C00D840074B18600020FFF786FA002070BDDE
:10114C000120FCE70020024000100240D41B0008E4
:10115C0008000020014B1868704700BF08000020F1
:10116C0008B5FFF7F7FF044B5B68C3F3C223034AD0
:10117C00D35CD84008BD00BF00100240E41B00083F
:10118C0070B4036A23F001030362036A4268846942
:10119C0024F073040D6845EA040623F002048B68FE
:1011AC0023430D4DA84209D00B4DA8420DD04260EF
:1011BC0086614A684263036270BC704723F008037F
:1011CC00CC68234323F00403EEE722F440724C690D
:1011DC0014438A692243EAE7002C014030B4036AC5
:1011EC0023F480730362036A4268C46924F07304B5
:1011FC000D682C4323F400738D6843EA05230F4DCF
:10120C00A84209D00D4DA8420ED04260C4614A6874
:10121C00C263036230BC704723F40063CD6843EAB9
:10122C00052323F48063EDE722F440524D6942EA32
:10123C0005128D6942EA0512E7E700BF002C014058
:10124C0030B4036A23F480530362036A4468C269AE
:10125C0022F4E6420D6842EA052223F400538D681D
:10126C0043EA0533074DA84206D04460C2614A6880
:10127C000264036230BC704724F480444D6944EA34
:10128C008514F2E7002C014003681B4A90420AD0F7
:10129C00B0F1804F07D0A2F59432904203D002F502
:1012AC008062904203D123F070034A681343124AC0
:1012BC0090420AD0B0F1804F07D0A2F59432904200
:1012CC0003D002F58062904203D123F44073CA68C4
:1012DC00134323F080034A69134303608B68C36292
:1012EC000B688362044B984202D001234361704720
:1012FC000B690363F9E700BF002C0140A8B110B5DE
:10130C00044690F83D305BB1022384F83D30211D3A
:10131C002068FFF7B9FF012384F83D30002010BD91
:10132C0080F83C3000F08AFAEEE7012070470000AC
:10133C0030B4036A23F010030362036A44688269C1
:10134C0022F4E6420D6842EA052223F020038D6860
:10135C0043EA05130E4DA84209D00D4DA8420ED0FC
:10136C00446082614A688263036230BC704723F038
:10137C008003CD6843EA051323F04003EDE724F422
:10138C0040644D6944EA85048D6944EA8504E7E7C5
:10139C00002C014090F83C30012B28D010B50446AD
:1013AC00012380F83C30022380F83D300C2A0BD806
:1013BC00DFE802F0070A0A0A110A0A0A150A0A0AE1
:1013CC0019000068FFF7DCFE012384F83D30002093
:1013DC0084F83C0010BD0068FFF7AAFFF4E7006832
:1013EC00FFF7FCFEF0E70068FFF72AFFECE70220AE
:1013FC00704710B4012303FA01F4036A23EA0403CF
:10140C000362036A8A401343036210BC70470000F6
:10141C0010B5044601220068FFF7EBFF2368074A6A
:10142C00934206D02268136843F001031360002036
:10143C0010BD5A6C42F400425A64F3E7002C014090
:10144C0090F83C30012B25D0012380F83C30CB6840
:10145C0023F440738A68134323F480634A6813436C
:10146C0023F400630A68134323F480530A6913437B
:10147C0023F400534A69134323F480438A691343CA
:10148C0023F40043134302685364002380F83C3078
:10149C00184670470220704790F83C30012B22D040
:1014AC0030B4012280F83C20022380F83D300468DF
:1014BC00636823F070036360046863680D682B43F2
:1014CC0063600468A36823F08003A3600468A368C6
:1014DC0049680B43A36080F83D20002380F83C3022
:1014EC00184630BC704702207047000084B00F4B88
:1014FC009A6942F020029A619A6902F020020192E4
:10150C00019A9A6942F008029A619A6902F00802FB
:10151C000292029A9A6942F004029A619B6903F062
:10152C0004030393039B04B0704700BF00100240F8
:10153C0000B583B00E4B5A6942F001025A615B69E7
:10154C0003F001030193019B002211460C20FFF7CD
:10155C00D5F80C20FFF706F9002211460D20FFF7F5
:10156C00CDF80D20FFF7FEF803B05DF804FB00BFCB
:10157C0000100240FEE7000000B591B02B482C4B48
:10158C00036007234360002383604FF47A72C260C8
:10159C00036143618361FFF7B1FE002831D1002361
:1015AC000E930F930EA92148FFF776FF00282CD13C
:1015BC0000220792089209920A920B920C920D92B9
:1015CC0007A91A48FFF7E6FE18BB042207A917481B
:1015DC00FFF7E0FE08BB0023009301930293C8229F
:1015EC00039204934FF400520592069369460F48F8
:1015FC00FFF726FFA8B90D4800F07CF911B05DF893
:10160C0004FBDD210B48FFF7B5FFE4210948FFF788
:10161C00B1FFF0210748FFF7ADFFF5210548FFF7B3
:10162C00A9FF40F201110348FFF7A4FFBC00002002
:10163C00002C0140EC1B000800B591B00122069271
:10164C004FF480330793002108910A9202220D92E5
:10165C000E934FF400230F9306A8FFF799FA10BBD3
:10166C000F23019302230293002303934FF4806210
:10167C0004920593012101A8FFF7B0FCB8B9FFF75C
:10168C0069FD0D4BA3FB00308009FFF777F80420B0
:10169C00FFF78AF8002211464FF0FF30FFF72EF8C3
:1016AC0011B05DF804FBAF210448FFF763FFBD21C7
:1016BC000248FFF75FFF00BFD34D6210EC1B000820
:1016CC0008B5FEF7E5FFFFF7B7FFFFF70FFFFFF7D2
:1016DC002FFFFFF751FF2C4C2268536C23F0FF03B4
:1016EC0053644AF2F87000F0F8F923685A6C02431C
:1016FC005A641A6900251D614FF47A76DE6206225F
:10170C009A6232460121204600F0F8F93246022155
:10171C00204600F0F3F94FF4AF720121204600F09F
:10172C004FF940F252320221204600F049F922686A
:10173C00136843F08003136023689A6942F0300207
:10174C009A619A6942F440529A61104A1168886809
:10175C000F4A02438A600F4A116888680E4A024396
:10176C008A601A6A42F004021A6229462046FFF780
:10177C004FFE2268136A43F0400313620421204693
:10178C00FFF746FEFEE700BFBC0000202C00002047
:10179C00342C014074000020382C014000B583B07B
:1017AC00244B9A6942F001029A619A6902F0010293
:1017BC000092009ADA6942F08052DA61DB6903F038
:1017CC0080530193019B0320FEF786FF00221146F4
:1017DC006FF00B00FEF792FF002211466FF00A002B
:1017EC00FEF78CFF002211466FF00900FEF786FF12
:1017FC00002211466FF00400FEF780FF0022114614
:10180C006FF00300FEF77AFF002211466FF0010023
:10181C00FEF774FF002211464FF0FF30FEF76EFF0B
:10182C00054A536823F0E06343F00073536003B040
:10183C005DF804FB00100240000001400268274BD9
:10184C009A4200D0704710B582B0044603F5644349
:10185C009A6942F400629A619B6903F400630193F4
:10186C00019B1F481F4B03601023436000238360C0
:10187C008022C2604FF4807202614FF48062426138
:10188C0020228261C361FEF7A5FFE0B9144B6362AD
:10189C005C621548154B0360102343600023836082
:1018AC008022C2604FF4807202614FF48062426108
:1018BC0020228261C361FEF78DFF48B90A4BA362F7
:1018CC005C6202B010BD71210948FFF753FEDDE7E1
:1018DC0081210748FFF74EFEF0E700BF002C0140C6
:1018EC002C0000201C00024074000020300002403C
:1018FC00FC1B000802680D4B9A4200D0704710B5D3
:10190C0084B04FF4C04300930224019403946946BD
:10191C000748FFF73DF84FF440730093019403948C
:10192C0069460448FFF734F804B010BD002C0140A0
:10193C00000C0140000801407047FEE7FEE7FEE79F
:10194C00FEE770477047704708B5FEF7B3FEFEF729
:10195C003CFF08BD08B50248FEF778FF08BD00BF84
:10196C002C00002008B50248FEF770FF08BD00BF30
:10197C00740000200F4B1A6842F001021A6059687B
:10198C000D4A0A405A601A6822F0847222F480329E
:10199C001A601A6822F480221A605A6822F4FE0235
:1019AC005A604FF41F029A60044B4FF000629A6029
:1019BC00704700BF001002400000FFF800ED00E08F
:1019CC00012906D0022907D0032908D0042909D0FF
:1019DC00704703685A63704703689A6370470368DB
:1019EC00DA63704703681A64F2E7000008B5FFF782
:1019FC00B7FBFEF75BFC01464FF07E50FEF762FD35
:101A0C000249FEF7ABFCFEF7F9FD08BD286B6E4EE4
:101A1C0010B48BB25A0092B2DB009BB2044620B1D8
:101A2C0089B2C901013981420FD2B4EB821F03D3B1
:101A3C00D201013AA2420AD2B4EB431F09D39B0153
:101A4C00013BA34208D2E02004E0002002E0802009
:101A5C0000E0E02010BC7047C020FBE730B48BB234
:101A6C005C00A4B2DD00ADB21B019BB2024620B1FA
:101A7C0089B2C801013890421AD2B2EB841F03D349
:101A8C00E1010139914218D2B2EB451F03D3A901F0
:101A9C000139914217D2B2EB431F1AD39901013984
:101AAC00914218D3B2FBF3F3D8B22038C0B202E0A3
:101ABC00B2FBF1F1C8B230BC7047B2FBF4F0C0B26B
:101ACC004038C0B2F7E7B2FBF5F0C0B22038C0B274
:101ADC00F1E71F20EFE71F20EDE770B50446FFF795
:101AEC0085FF054601462046FFF792FFC6B2294600
:101AFC002046FFF7B3FFC0B2304370BD08B55208A3
:101B0C00FFF75EFF08BD0000002103E00B4B5B58A4
:101B1C00435004310A480B4B42189A42F6D30A4AF6
:101B2C0002E0002342F8043B084B9A42F9D3FFF73A
:101B3C0021FF00F00FF8FFF7C3FD7047201C0008D1
:101B4C00000000200C0000200C000020FC000020F5
:101B5C00FEE7000070B500250C4E0D4CA41BA41024
:101B6C00A54209D100F01AF800250A4E0A4CA41B14
:101B7C00A410A54205D170BD56F825309847013503
:101B8C00EEE756F8253098470135F2E7181C0008A7
:101B9C00181C0008181C00081C1C0008F8B500BF15
:101BAC00F8BC08BC9E467047F8B500BFF8BC08BC32
:041BBC009E4670478A
:101BC00002030405060708090A0B0C0D0E0F10107E
:101BD00001020000000000000000000001020304F8
:101BE0000607080900000000010203042E2E2F53EF
:101BF00072632F6D61696E2E630000002E2E2F53CD
:101C000072632F73746D3332663178785F68616CFC
:081C10005F6D73702E6300008C
:041C1800310100088E
:041C1C000D010008AE
:0C1C2000010000001000000000A24A04B7
:0400000508001B15BF
:00000001FF
